{
  "contractName": "Contacts",
  "abi": [
    {
      "inputs": [],
      "stateMutability": "nonpayable",
      "type": "constructor"
    },
    {
      "inputs": [
        {
          "internalType": "uint256",
          "name": "",
          "type": "uint256"
        }
      ],
      "name": "contacts",
      "outputs": [
        {
          "internalType": "uint256",
          "name": "id",
          "type": "uint256"
        },
        {
          "internalType": "string",
          "name": "name",
          "type": "string"
        },
        {
          "internalType": "string",
          "name": "phone",
          "type": "string"
        }
      ],
      "stateMutability": "view",
      "type": "function",
      "constant": true
    },
    {
      "inputs": [],
      "name": "count",
      "outputs": [
        {
          "internalType": "uint256",
          "name": "",
          "type": "uint256"
        }
      ],
      "stateMutability": "view",
      "type": "function",
      "constant": true
    },
    {
      "inputs": [
        {
          "internalType": "string",
          "name": "_name",
          "type": "string"
        },
        {
          "internalType": "string",
          "name": "_phone",
          "type": "string"
        }
      ],
      "name": "createContact",
      "outputs": [],
      "stateMutability": "nonpayable",
      "type": "function"
    }
  ],
  "bytecode": "0x60806040526000805534801561001457600080fd5b5061008f6040518060400160405280600c81526020017f5a616661722053616c65656d00000000000000000000000000000000000000008152506040518060400160405280600981526020017f313233313233313233000000000000000000000000000000000000000000000081525061009460201b60201c565b6102ad565b6000808154809291906100a690610206565b919050555060405180606001604052806000548152602001838152602001828152506001600080548152602001908152602001600020600082015181600001556020820151816001019080519060200190610102929190610127565b50604082015181600201908051906020019061011f929190610127565b509050505050565b828054610133906101d4565b90600052602060002090601f016020900481019282610155576000855561019c565b82601f1061016e57805160ff191683800117855561019c565b8280016001018555821561019c579182015b8281111561019b578251825591602001919060010190610180565b5b5090506101a991906101ad565b5090565b5b808211156101c65760008160009055506001016101ae565b5090565b6000819050919050565b600060028204905060018216806101ec57607f821691505b60208210811415610200576101ff61027e565b5b50919050565b6000610211826101ca565b91507fffffffffffffffffffffffffffffffffffffffffffffffffffffffffffffffff8214156102445761024361024f565b5b600182019050919050565b7f4e487b7100000000000000000000000000000000000000000000000000000000600052601160045260246000fd5b7f4e487b7100000000000000000000000000000000000000000000000000000000600052602260045260246000fd5b610737806102bc6000396000f3fe608060405234801561001057600080fd5b50600436106100415760003560e01c806306661abd146100465780633dce492014610064578063e0f478cb14610080575b600080fd5b61004e6100b2565b60405161005b9190610482565b60405180910390f35b61007e600480360381019061007991906103a5565b6100b8565b005b61009a60048036038101906100959190610411565b61014b565b6040516100a99392919061049d565b60405180910390f35b60005481565b6000808154809291906100ca90610603565b919050555060405180606001604052806000548152602001838152602001828152506001600080548152602001908152602001600020600082015181600001556020820151816001019080519060200190610126929190610285565b506040820151816002019080519060200190610143929190610285565b509050505050565b6001602052806000526040600020600091509050806000015490806001018054610174906105a0565b80601f01602080910402602001604051908101604052809291908181526020018280546101a0906105a0565b80156101ed5780601f106101c2576101008083540402835291602001916101ed565b820191906000526020600020905b8154815290600101906020018083116101d057829003601f168201915b505050505090806002018054610202906105a0565b80601f016020809104026020016040519081016040528092919081815260200182805461022e906105a0565b801561027b5780601f106102505761010080835404028352916020019161027b565b820191906000526020600020905b81548152906001019060200180831161025e57829003601f168201915b5050505050905083565b828054610291906105a0565b90600052602060002090601f0160209004810192826102b357600085556102fa565b82601f106102cc57805160ff19168380011785556102fa565b828001600101855582156102fa579182015b828111156102f95782518255916020019190600101906102de565b5b509050610307919061030b565b5090565b5b8082111561032457600081600090555060010161030c565b5090565b600061033b61033684610507565b6104e2565b90508281526020810184848401111561035357600080fd5b61035e84828561055e565b509392505050565b600082601f83011261037757600080fd5b8135610387848260208601610328565b91505092915050565b60008135905061039f816106ea565b92915050565b600080604083850312156103b857600080fd5b600083013567ffffffffffffffff8111156103d257600080fd5b6103de85828601610366565b925050602083013567ffffffffffffffff8111156103fb57600080fd5b61040785828601610366565b9150509250929050565b60006020828403121561042357600080fd5b600061043184828501610390565b91505092915050565b600061044582610538565b61044f8185610543565b935061045f81856020860161056d565b610468816106d9565b840191505092915050565b61047c81610554565b82525050565b60006020820190506104976000830184610473565b92915050565b60006060820190506104b26000830186610473565b81810360208301526104c4818561043a565b905081810360408301526104d8818461043a565b9050949350505050565b60006104ec6104fd565b90506104f882826105d2565b919050565b6000604051905090565b600067ffffffffffffffff821115610522576105216106aa565b5b61052b826106d9565b9050602081019050919050565b600081519050919050565b600082825260208201905092915050565b6000819050919050565b82818337600083830152505050565b60005b8381101561058b578082015181840152602081019050610570565b8381111561059a576000848401525b50505050565b600060028204905060018216806105b857607f821691505b602082108114156105cc576105cb61067b565b5b50919050565b6105db826106d9565b810181811067ffffffffffffffff821117156105fa576105f96106aa565b5b80604052505050565b600061060e82610554565b91507fffffffffffffffffffffffffffffffffffffffffffffffffffffffffffffffff8214156106415761064061064c565b5b600182019050919050565b7f4e487b7100000000000000000000000000000000000000000000000000000000600052601160045260246000fd5b7f4e487b7100000000000000000000000000000000000000000000000000000000600052602260045260246000fd5b7f4e487b7100000000000000000000000000000000000000000000000000000000600052604160045260246000fd5b6000601f19601f8301169050919050565b6106f381610554565b81146106fe57600080fd5b5056fea264697066735822122044ce3c8f8beff0858a16e1269ddb3eb98bf4b3d04c69f8b759a5715c5d8b32fe64736f6c63430008010033",
  "immutableReferences": {},
  "source": "pragma solidity >=0.4.22 <0.9.0;\n\ncontract Contacts {\n  uint public count = 0; // state variable\n\n  struct Contact {\n\t\tuint id;\n\t\tstring name;\n\t\tstring phone;\n\t}\n\n\tconstructor() public {\n\t\tcreateContact('Zafar Saleem', '123123123');\n\t}\n\n\tmapping(uint => Contact) public contacts;\n\n\tfunction createContact(string memory _name, string memory _phone) public {\n\t\tcount++;\n\t\tcontacts[count] = Contact(count, _name, _phone);\n\t}\n}\n",
  "sourcePath": "/Users/kimdawoon/blockchain-tutorial/contracts/contracts/Contacts.sol",
  "compiler": {
    "name": "solc",
    "version": "0.8.1+commit.df193b15.Emscripten.clang"
  },
  "schemaVersion": "3.4.7",
  "updatedAt": "2022-06-14T16:23:56.460Z",
  "networkType": "ethereum",
  "devdoc": {
    "kind": "dev",
    "methods": {},
    "version": 1
  },
  "userdoc": {
    "kind": "user",
    "methods": {},
    "version": 1
  }
}